{
  "_format": "hh-sol-artifact-1",
  "contractName": "Token",
  "sourceName": "contracts/Token.sol",
  "abi": [
    {
      "inputs": [],
      "name": "getNum",
      "outputs": [
        {
          "internalType": "uint256",
          "name": "",
          "type": "uint256"
        }
      ],
      "stateMutability": "view",
      "type": "function"
    },
    {
      "inputs": [
        {
          "internalType": "uint256",
          "name": "_num",
          "type": "uint256"
        }
      ],
      "name": "setNum",
      "outputs": [],
      "stateMutability": "nonpayable",
      "type": "function"
    }
  ],
  "bytecode": "0x608060405234801561001057600080fd5b50610360806100206000396000f3fe608060405234801561001057600080fd5b50600436106100365760003560e01c806367e0badb1461003b578063cd16ecbf14610059575b600080fd5b610043610075565b60405161005091906101e8565b60405180910390f35b610073600480360381019061006e9190610234565b61007e565b005b60008054905090565b6100bf6040518060400160405280600e81526020017f56616c7565206f66204e756d3a2000000000000000000000000000000000000081525060005461010a565b806000819055506101076040518060400160405280600f81526020017f557064617465642056616c75653a20000000000000000000000000000000000081525060005461010a565b50565b6101a282826040516024016101209291906102fa565b6040516020818303038152906040527fb60e72cc000000000000000000000000000000000000000000000000000000007bffffffffffffffffffffffffffffffffffffffffffffffffffffffff19166020820180517bffffffffffffffffffffffffffffffffffffffffffffffffffffffff83818316178352505050506101a6565b5050565b60008151905060006a636f6e736f6c652e6c6f679050602083016000808483855afa5050505050565b6000819050919050565b6101e2816101cf565b82525050565b60006020820190506101fd60008301846101d9565b92915050565b600080fd5b610211816101cf565b811461021c57600080fd5b50565b60008135905061022e81610208565b92915050565b60006020828403121561024a57610249610203565b5b60006102588482850161021f565b91505092915050565b600081519050919050565b600082825260208201905092915050565b60005b8381101561029b578082015181840152602081019050610280565b838111156102aa576000848401525b50505050565b6000601f19601f8301169050919050565b60006102cc82610261565b6102d6818561026c565b93506102e681856020860161027d565b6102ef816102b0565b840191505092915050565b6000604082019050818103600083015261031481856102c1565b905061032360208301846101d9565b939250505056fea264697066735822122010843de3b15de88fe102182ffbdca1483f8163073da8841bf1dba9547749d21a64736f6c63430008080033",
  "linkReferences": {},
  "deployedLinkReferences": {}
}