{
  "_format": "hh-sol-artifact-1",
  "contractName": "Token",
  "sourceName": "contracts/Token.sol",
  "abi": [
    {
      "inputs": [],
      "name": "getNum",
      "outputs": [
        {
          "internalType": "uint256",
          "name": "",
          "type": "uint256"
        }
      ],
      "stateMutability": "view",
      "type": "function"
    },
    {
      "inputs": [
        {
          "internalType": "uint256",
          "name": "_num",
          "type": "uint256"
        }
      ],
      "name": "setNum",
      "outputs": [],
      "stateMutability": "nonpayable",
      "type": "function"
    }
  ],
  "bytecode": "0x608060405234801561001057600080fd5b50610418806100206000396000f3fe608060405234801561001057600080fd5b50600436106100365760003560e01c806367e0badb1461003b578063cd16ecbf14610059575b600080fd5b610043610075565b60405161005091906102a0565b60405180910390f35b610073600480360381019061006e91906102ec565b6100bb565b005b600061008b67d6a767cf6b73cce960c01b6101bf565b61009f67f008774d4ced0ef860c01b6101bf565b6100b36777ff23aac2caeabb60c01b6101bf565b600054905090565b6100cf6718a8294e92ae0a1660c01b6101bf565b6100e367dbb97991714697bc60c01b6101bf565b6100f767ec3e61c5e2daf76860c01b6101bf565b6101386040518060400160405280600e81526020017f56616c7565206f66204e756d3a200000000000000000000000000000000000008152506000546101c2565b61014c674f775a16c3699aef60c01b6101bf565b8060008190555061016767528fa2c15e630bc060c01b6101bf565b61017b6752c378fe04dd8ce260c01b6101bf565b6101bc6040518060400160405280600f81526020017f557064617465642056616c75653a2000000000000000000000000000000000008152506000546101c2565b50565b50565b61025a82826040516024016101d89291906103b2565b6040516020818303038152906040527fb60e72cc000000000000000000000000000000000000000000000000000000007bffffffffffffffffffffffffffffffffffffffffffffffffffffffff19166020820180517bffffffffffffffffffffffffffffffffffffffffffffffffffffffff838183161783525050505061025e565b5050565b60008151905060006a636f6e736f6c652e6c6f679050602083016000808483855afa5050505050565b6000819050919050565b61029a81610287565b82525050565b60006020820190506102b56000830184610291565b92915050565b600080fd5b6102c981610287565b81146102d457600080fd5b50565b6000813590506102e6816102c0565b92915050565b600060208284031215610302576103016102bb565b5b6000610310848285016102d7565b91505092915050565b600081519050919050565b600082825260208201905092915050565b60005b83811015610353578082015181840152602081019050610338565b83811115610362576000848401525b50505050565b6000601f19601f8301169050919050565b600061038482610319565b61038e8185610324565b935061039e818560208601610335565b6103a781610368565b840191505092915050565b600060408201905081810360008301526103cc8185610379565b90506103db6020830184610291565b939250505056fea2646970667358221220215aad0967c1e78a5678e4e64704b16f984afc519ecd2aabf13a249f833aa7a264736f6c63430008080033",
  "linkReferences": {},
  "deployedLinkReferences": {}
}