{
	"contractName": "HelloChugSplash",
	"address": "0x20BB18Df8eCc9990f5D7bC6E149760781145EF5F",
	"abi": [
		{
			"inputs": [],
			"name": "number",
			"outputs": [
				{
					"internalType": "uint8",
					"name": "",
					"type": "uint8"
				}
			],
			"stateMutability": "view",
			"type": "function"
		},
		{
			"inputs": [],
			"name": "otherStorage",
			"outputs": [
				{
					"internalType": "address",
					"name": "",
					"type": "address"
				}
			],
			"stateMutability": "view",
			"type": "function"
		},
		{
			"inputs": [],
			"name": "storageName",
			"outputs": [
				{
					"internalType": "string",
					"name": "",
					"type": "string"
				}
			],
			"stateMutability": "view",
			"type": "function"
		},
		{
			"inputs": [],
			"name": "stored",
			"outputs": [
				{
					"internalType": "bool",
					"name": "",
					"type": "bool"
				}
			],
			"stateMutability": "view",
			"type": "function"
		}
	],
	"transactionHash": "0x5c27557beda1b6dfdc72607ae4f8fa5308b8ee009329a70ca4214a632f6fc2a7",
	"solcInputHash": "67124c0616883d31701137199fad53e5",
	"numDeployments": 1,
	"args": [],
	"bytecode": "0x608060405234801561001057600080fd5b506103b2806100206000396000f3fe608060405234801561001057600080fd5b506004361061004c5760003560e01c80638381f58a14610051578063a9b6d3e01461006f578063d73c277c1461008d578063e582dd31146100ab575b600080fd5b6100596100c9565b60405161006691906101bd565b60405180910390f35b6100776100da565b6040516100849190610219565b60405180910390f35b610095610100565b6040516100a291906102c4565b60405180910390f35b6100b361018e565b6040516100c09190610301565b60405180910390f35b60008054906101000a900460ff1681565b600060029054906101000a900473ffffffffffffffffffffffffffffffffffffffff1681565b6001805461010d9061034b565b80601f01602080910402602001604051908101604052809291908181526020018280546101399061034b565b80156101865780601f1061015b57610100808354040283529160200191610186565b820191906000526020600020905b81548152906001019060200180831161016957829003601f168201915b505050505081565b600060019054906101000a900460ff1681565b600060ff82169050919050565b6101b7816101a1565b82525050565b60006020820190506101d260008301846101ae565b92915050565b600073ffffffffffffffffffffffffffffffffffffffff82169050919050565b6000610203826101d8565b9050919050565b610213816101f8565b82525050565b600060208201905061022e600083018461020a565b92915050565b600081519050919050565b600082825260208201905092915050565b60005b8381101561026e578082015181840152602081019050610253565b60008484015250505050565b6000601f19601f8301169050919050565b600061029682610234565b6102a0818561023f565b93506102b0818560208601610250565b6102b98161027a565b840191505092915050565b600060208201905081810360008301526102de818461028b565b905092915050565b60008115159050919050565b6102fb816102e6565b82525050565b600060208201905061031660008301846102f2565b92915050565b7f4e487b7100000000000000000000000000000000000000000000000000000000600052602260045260246000fd5b6000600282049050600182168061036357607f821691505b6020821081036103765761037561031c565b5b5091905056fea264697066735822122025d1c1adbc73e60e5735ade6c446911a57a9a0937ee96c58f98e56372b9f96af64736f6c63430008110033",
	"deployedBytecode": "0x60806040526004361061005e5760003560e01c80635c60da1b116100435780635c60da1b146100be5780638f283970146100f8578063f851a440146101185761006d565b80633659cfe6146100755780634f1ef286146100955761006d565b3661006d5761006b61012d565b005b61006b61012d565b34801561008157600080fd5b5061006b6100903660046106d9565b610224565b6100a86100a33660046106f4565b610296565b6040516100b59190610777565b60405180910390f35b3480156100ca57600080fd5b506100d3610419565b60405173ffffffffffffffffffffffffffffffffffffffff90911681526020016100b5565b34801561010457600080fd5b5061006b6101133660046106d9565b6104b0565b34801561012457600080fd5b506100d3610517565b60006101577f360894a13ba1a3210667c828492db98dca3e2076cc3735a920a3ca505d382bbc5490565b905073ffffffffffffffffffffffffffffffffffffffff8116610201576040517f08c379a000000000000000000000000000000000000000000000000000000000815260206004820152602560248201527f50726f78793a20696d706c656d656e746174696f6e206e6f7420696e6974696160448201527f6c697a656400000000000000000000000000000000000000000000000000000060648201526084015b60405180910390fd5b3660008037600080366000845af43d6000803e8061021e573d6000fd5b503d6000f35b7fb53127684a568b3173ae13b9f8a6016e243e63b6e8ee1178d6a717850b5d61035473ffffffffffffffffffffffffffffffffffffffff163373ffffffffffffffffffffffffffffffffffffffff16148061027d575033155b1561028e5761028b816105a3565b50565b61028b61012d565b60606102c07fb53127684a568b3173ae13b9f8a6016e243e63b6e8ee1178d6a717850b5d61035490565b73ffffffffffffffffffffffffffffffffffffffff163373ffffffffffffffffffffffffffffffffffffffff1614806102f7575033155b1561040a57610305846105a3565b6000808573ffffffffffffffffffffffffffffffffffffffff16858560405161032f9291906107ea565b600060405180830381855af49150503d806000811461036a576040519150601f19603f3d011682016040523d82523d6000602084013e61036f565b606091505b509150915081610401576040517f08c379a000000000000000000000000000000000000000000000000000000000815260206004820152603960248201527f50726f78793a2064656c656761746563616c6c20746f206e657720696d706c6560448201527f6d656e746174696f6e20636f6e7472616374206661696c65640000000000000060648201526084016101f8565b91506104129050565b61041261012d565b9392505050565b60006104437fb53127684a568b3173ae13b9f8a6016e243e63b6e8ee1178d6a717850b5d61035490565b73ffffffffffffffffffffffffffffffffffffffff163373ffffffffffffffffffffffffffffffffffffffff16148061047a575033155b156104a557507f360894a13ba1a3210667c828492db98dca3e2076cc3735a920a3ca505d382bbc5490565b6104ad61012d565b90565b7fb53127684a568b3173ae13b9f8a6016e243e63b6e8ee1178d6a717850b5d61035473ffffffffffffffffffffffffffffffffffffffff163373ffffffffffffffffffffffffffffffffffffffff161480610509575033155b1561028e5761028b8161060b565b60006105417fb53127684a568b3173ae13b9f8a6016e243e63b6e8ee1178d6a717850b5d61035490565b73ffffffffffffffffffffffffffffffffffffffff163373ffffffffffffffffffffffffffffffffffffffff161480610578575033155b156104a557507fb53127684a568b3173ae13b9f8a6016e243e63b6e8ee1178d6a717850b5d61035490565b7f360894a13ba1a3210667c828492db98dca3e2076cc3735a920a3ca505d382bbc81905560405173ffffffffffffffffffffffffffffffffffffffff8216907fbc7cd75a20ee27fd9adebab32041f755214dbc6bffa90cc0225b39da2e5c2d3b90600090a250565b60006106357fb53127684a568b3173ae13b9f8a6016e243e63b6e8ee1178d6a717850b5d61035490565b7fb53127684a568b3173ae13b9f8a6016e243e63b6e8ee1178d6a717850b5d61038390556040805173ffffffffffffffffffffffffffffffffffffffff8084168252851660208201529192507f7e644d79422f17c01e4894b5f4f588d331ebfa28653d42ae832dc59e38c9798f910160405180910390a15050565b803573ffffffffffffffffffffffffffffffffffffffff811681146106d457600080fd5b919050565b6000602082840312156106eb57600080fd5b610412826106b0565b60008060006040848603121561070957600080fd5b610712846106b0565b9250602084013567ffffffffffffffff8082111561072f57600080fd5b818601915086601f83011261074357600080fd5b81358181111561075257600080fd5b87602082850101111561076457600080fd5b6020830194508093505050509250925092565b600060208083528351808285015260005b818110156107a457858101830151858201604001528201610788565b818111156107b6576000604083870101525b50601f017fffffffffffffffffffffffffffffffffffffffffffffffffffffffffffffffe016929092016040019392505050565b818382376000910190815291905056fea26469706673582212200216099710a39ba669241f500daaab663209453b368ac65b50d253a46152ae8364736f6c634300080f0033",
	"devdoc": {
		"kind": "dev",
		"methods": {},
		"version": 1
	},
	"userdoc": {
		"kind": "user",
		"methods": {},
		"version": 1
	},
	"storageLayout": {
		"storage": [
			{
				"astId": 3,
				"contract": "contracts/HelloChugSplash.sol:HelloChugSplash",
				"label": "number",
				"offset": 0,
				"slot": "0",
				"type": "t_uint8"
			},
			{
				"astId": 5,
				"contract": "contracts/HelloChugSplash.sol:HelloChugSplash",
				"label": "stored",
				"offset": 1,
				"slot": "0",
				"type": "t_bool"
			},
			{
				"astId": 7,
				"contract": "contracts/HelloChugSplash.sol:HelloChugSplash",
				"label": "otherStorage",
				"offset": 2,
				"slot": "0",
				"type": "t_address"
			},
			{
				"astId": 9,
				"contract": "contracts/HelloChugSplash.sol:HelloChugSplash",
				"label": "storageName",
				"offset": 0,
				"slot": "1",
				"type": "t_string_storage"
			}
		],
		"types": {
			"t_address": {
				"encoding": "inplace",
				"label": "address",
				"numberOfBytes": "20"
			},
			"t_bool": {
				"encoding": "inplace",
				"label": "bool",
				"numberOfBytes": "1"
			},
			"t_string_storage": {
				"encoding": "bytes",
				"label": "string",
				"numberOfBytes": "32"
			},
			"t_uint8": {
				"encoding": "inplace",
				"label": "uint8",
				"numberOfBytes": "1"
			}
		}
	}
}