{
  "_format": "hh-sol-artifact-1",
  "contractName": "Arbit",
  "sourceName": "contracts/Arbit.sol",
  "abi": [
    {
      "inputs": [],
      "stateMutability": "nonpayable",
      "type": "constructor"
    },
    {
      "inputs": [],
      "name": "SushiswapRouterAddress",
      "outputs": [
        {
          "internalType": "address",
          "name": "",
          "type": "address"
        }
      ],
      "stateMutability": "view",
      "type": "function"
    },
    {
      "inputs": [],
      "name": "UniswapRouterAddress",
      "outputs": [
        {
          "internalType": "address",
          "name": "",
          "type": "address"
        }
      ],
      "stateMutability": "view",
      "type": "function"
    },
    {
      "inputs": [],
      "name": "_daiAddress",
      "outputs": [
        {
          "internalType": "address",
          "name": "",
          "type": "address"
        }
      ],
      "stateMutability": "view",
      "type": "function"
    },
    {
      "inputs": [
        {
          "internalType": "uint256",
          "name": "_amountIn",
          "type": "uint256"
        },
        {
          "internalType": "uint256",
          "name": "_amountOutMin",
          "type": "uint256"
        },
        {
          "internalType": "uint256",
          "name": "_uniswapAmountOutMin",
          "type": "uint256"
        }
      ],
      "name": "arbitrageSwapFromSushiswap",
      "outputs": [],
      "stateMutability": "nonpayable",
      "type": "function"
    },
    {
      "inputs": [
        {
          "internalType": "uint256",
          "name": "_amountIn",
          "type": "uint256"
        },
        {
          "internalType": "uint256",
          "name": "_amountOutMin",
          "type": "uint256"
        },
        {
          "internalType": "uint256",
          "name": "_sushiswapAmountOutMin",
          "type": "uint256"
        }
      ],
      "name": "arbitrageSwapFromUniswap",
      "outputs": [],
      "stateMutability": "nonpayable",
      "type": "function"
    },
    {
      "inputs": [
        {
          "internalType": "uint256",
          "name": "amountIn",
          "type": "uint256"
        }
      ],
      "name": "getOut",
      "outputs": [
        {
          "internalType": "uint256",
          "name": "",
          "type": "uint256"
        }
      ],
      "stateMutability": "view",
      "type": "function"
    },
    {
      "inputs": [],
      "name": "owner",
      "outputs": [
        {
          "internalType": "address",
          "name": "",
          "type": "address"
        }
      ],
      "stateMutability": "view",
      "type": "function"
    },
    {
      "inputs": [
        {
          "internalType": "uint256",
          "name": "nonce",
          "type": "uint256"
        },
        {
          "internalType": "uint256",
          "name": "expiry",
          "type": "uint256"
        },
        {
          "internalType": "bool",
          "name": "allowed",
          "type": "bool"
        },
        {
          "internalType": "uint8",
          "name": "v",
          "type": "uint8"
        },
        {
          "internalType": "bytes32",
          "name": "r",
          "type": "bytes32"
        },
        {
          "internalType": "bytes32",
          "name": "s",
          "type": "bytes32"
        }
      ],
      "name": "permitWithDAI",
      "outputs": [],
      "stateMutability": "nonpayable",
      "type": "function"
    },
    {
      "inputs": [],
      "name": "returnAllowance",
      "outputs": [
        {
          "internalType": "uint256",
          "name": "",
          "type": "uint256"
        }
      ],
      "stateMutability": "view",
      "type": "function"
    },
    {
      "inputs": [],
      "name": "returnAmountOfDAI",
      "outputs": [
        {
          "internalType": "uint256",
          "name": "",
          "type": "uint256"
        }
      ],
      "stateMutability": "view",
      "type": "function"
    },
    {
      "inputs": [],
      "name": "returnAmountOfWETH",
      "outputs": [
        {
          "internalType": "uint256",
          "name": "",
          "type": "uint256"
        }
      ],
      "stateMutability": "view",
      "type": "function"
    },
    {
      "inputs": [],
      "name": "returnOwner",
      "outputs": [
        {
          "internalType": "address",
          "name": "",
          "type": "address"
        }
      ],
      "stateMutability": "view",
      "type": "function"
    },
    {
      "inputs": [
        {
          "internalType": "address",
          "name": "_token",
          "type": "address"
        },
        {
          "internalType": "uint256",
          "name": "amount",
          "type": "uint256"
        }
      ],
      "name": "revivalTransfer",
      "outputs": [],
      "stateMutability": "nonpayable",
      "type": "function"
    },
    {
      "inputs": [
        {
          "internalType": "address",
          "name": "_owner",
          "type": "address"
        }
      ],
      "name": "transferOwnership",
      "outputs": [],
      "stateMutability": "nonpayable",
      "type": "function"
    }
  ],
  "bytecode": "0x6080604052736b175474e89094c44da98b954eedeac495271d0f600160006101000a81548173ffffffffffffffffffffffffffffffffffffffff021916908373ffffffffffffffffffffffffffffffffffffffff160217905550737a250d5630b4cf539739df2c5dacb4c659f2488d600260006101000a81548173ffffffffffffffffffffffffffffffffffffffff021916908373ffffffffffffffffffffffffffffffffffffffff16021790555073d9e1ce17f2641f24ae83637ab66a2cca9c378b9f600360006101000a81548173ffffffffffffffffffffffffffffffffffffffff021916908373ffffffffffffffffffffffffffffffffffffffff16021790555034801561010f57600080fd5b50336000806101000a81548173ffffffffffffffffffffffffffffffffffffffff021916908373ffffffffffffffffffffffffffffffffffffffff160217905550600160009054906101000a900473ffffffffffffffffffffffffffffffffffffffff16600460006101000a81548173ffffffffffffffffffffffffffffffffffffffff021916908373ffffffffffffffffffffffffffffffffffffffff160217905550600260009054906101000a900473ffffffffffffffffffffffffffffffffffffffff16600560006101000a81548173ffffffffffffffffffffffffffffffffffffffff021916908373ffffffffffffffffffffffffffffffffffffffff160217905550600360009054906101000a900473ffffffffffffffffffffffffffffffffffffffff16600660006101000a81548173ffffffffffffffffffffffffffffffffffffffff021916908373ffffffffffffffffffffffffffffffffffffffff160217905550612d95806102886000396000f3fe608060405234801561001057600080fd5b50600436106100ea5760003560e01c80637fbb1f771161008c578063a3a239e011610066578063a3a239e014610217578063bd4ea73014610233578063f2fde38b1461024f578063f3a6f3231461026b576100ea565b80637fbb1f77146101bd5780638da5cb5b146101db57806394a927fe146101f9576100ea565b8063540378c9116100c8578063540378c914610147578063542bc60514610165578063690acb8f146101815780637a36661b1461019f576100ea565b80630806bf48146100ef578063142a7d501461010b578063360e524714610129575b600080fd5b61010960048036038101906101049190612469565b61029b565b005b61011361034d565b60405161012091906124b8565b60405180910390f35b61013161041f565b60405161013e91906124b8565b60405180910390f35b61014f6104f3565b60405161015c91906124b8565b60405180910390f35b61017f600480360381019061017a91906124d3565b610642565b005b6101896112a3565b6040516101969190612535565b60405180910390f35b6101a76112c9565b6040516101b49190612535565b60405180910390f35b6101c56112ef565b6040516101d29190612535565b60405180910390f35b6101e3611315565b6040516101f09190612535565b60405180910390f35b610201611339565b60405161020e9190612535565b60405180910390f35b610231600480360381019061022c91906124d3565b611362565b005b61024d600480360381019061024891906125f7565b611fc3565b005b61026960048036038101906102649190612684565b612066565b005b610285600480360381019061028091906126b1565b612137565b60405161029291906124b8565b60405180910390f35b8173ffffffffffffffffffffffffffffffffffffffff1663a9059cbb60008054906101000a900473ffffffffffffffffffffffffffffffffffffffff16836040518363ffffffff1660e01b81526004016102f69291906126de565b602060405180830381600087803b15801561031057600080fd5b505af1158015610324573d6000803e3d6000fd5b505050506040513d601f19601f82011682018060405250810190610348919061271c565b505050565b6000600160009054906101000a900473ffffffffffffffffffffffffffffffffffffffff1673ffffffffffffffffffffffffffffffffffffffff166370a0823160008054906101000a900473ffffffffffffffffffffffffffffffffffffffff166040518263ffffffff1660e01b81526004016103ca9190612535565b60206040518083038186803b1580156103e257600080fd5b505afa1580156103f6573d6000803e3d6000fd5b505050506040513d601f19601f8201168201806040525081019061041a919061275e565b905090565b6000600460009054906101000a900473ffffffffffffffffffffffffffffffffffffffff1673ffffffffffffffffffffffffffffffffffffffff1663dd62ed3e60008054906101000a900473ffffffffffffffffffffffffffffffffffffffff16306040518363ffffffff1660e01b815260040161049e92919061278b565b60206040518083038186803b1580156104b657600080fd5b505afa1580156104ca573d6000803e3d6000fd5b505050506040513d601f19601f820116820180604052508101906104ee919061275e565b905090565b6000600560009054906101000a900473ffffffffffffffffffffffffffffffffffffffff1673ffffffffffffffffffffffffffffffffffffffff1663ad5c46486040518163ffffffff1660e01b815260040160206040518083038186803b15801561055d57600080fd5b505afa158015610571573d6000803e3d6000fd5b505050506040513d601f19601f8201168201806040525081019061059591906127c9565b73ffffffffffffffffffffffffffffffffffffffff166370a0823160008054906101000a900473ffffffffffffffffffffffffffffffffffffffff166040518263ffffffff1660e01b81526004016105ed9190612535565b60206040518083038186803b15801561060557600080fd5b505afa158015610619573d6000803e3d6000fd5b505050506040513d601f19601f8201168201806040525081019061063d919061275e565b905090565b6000600460009054906101000a900473ffffffffffffffffffffffffffffffffffffffff1673ffffffffffffffffffffffffffffffffffffffff1663dd62ed3e60008054906101000a900473ffffffffffffffffffffffffffffffffffffffff16306040518363ffffffff1660e01b81526004016106c192919061278b565b60206040518083038186803b1580156106d957600080fd5b505afa1580156106ed573d6000803e3d6000fd5b505050506040513d601f19601f82011682018060405250810190610711919061275e565b1415610752576040517f08c379a000000000000000000000000000000000000000000000000000000000815260040161074990612853565b60405180910390fd5b600460009054906101000a900473ffffffffffffffffffffffffffffffffffffffff1673ffffffffffffffffffffffffffffffffffffffff166323b872dd60008054906101000a900473ffffffffffffffffffffffffffffffffffffffff1630866040518463ffffffff1660e01b81526004016107d193929190612873565b602060405180830381600087803b1580156107eb57600080fd5b505af11580156107ff573d6000803e3d6000fd5b505050506040513d601f19601f82011682018060405250810190610823919061271c565b506060600267ffffffffffffffff811115610841576108406128aa565b5b60405190808252806020026020018201604052801561086f5781602001602082028036833780820191505090505b509050600160009054906101000a900473ffffffffffffffffffffffffffffffffffffffff16816000815181106108a9576108a86128d9565b5b602002602001019073ffffffffffffffffffffffffffffffffffffffff16908173ffffffffffffffffffffffffffffffffffffffff1681525050600560009054906101000a900473ffffffffffffffffffffffffffffffffffffffff1673ffffffffffffffffffffffffffffffffffffffff1663ad5c46486040518163ffffffff1660e01b815260040160206040518083038186803b15801561094b57600080fd5b505afa15801561095f573d6000803e3d6000fd5b505050506040513d601f19601f8201168201806040525081019061098391906127c9565b81600181518110610997576109966128d9565b5b602002602001019073ffffffffffffffffffffffffffffffffffffffff16908173ffffffffffffffffffffffffffffffffffffffff16815250506060600267ffffffffffffffff8111156109ee576109ed6128aa565b5b604051908082528060200260200182016040528015610a1c5781602001602082028036833780820191505090505b509050600560009054906101000a900473ffffffffffffffffffffffffffffffffffffffff1673ffffffffffffffffffffffffffffffffffffffff1663ad5c46486040518163ffffffff1660e01b815260040160206040518083038186803b158015610a8757600080fd5b505afa158015610a9b573d6000803e3d6000fd5b505050506040513d601f19601f82011682018060405250810190610abf91906127c9565b81600081518110610ad357610ad26128d9565b5b602002602001019073ffffffffffffffffffffffffffffffffffffffff16908173ffffffffffffffffffffffffffffffffffffffff1681525050600160009054906101000a900473ffffffffffffffffffffffffffffffffffffffff1681600181518110610b4457610b436128d9565b5b602002602001019073ffffffffffffffffffffffffffffffffffffffff16908173ffffffffffffffffffffffffffffffffffffffff16815250506000600560009054906101000a900473ffffffffffffffffffffffffffffffffffffffff1673ffffffffffffffffffffffffffffffffffffffff1663d06ca61f87856040518363ffffffff1660e01b8152600401610bdd9291906129c6565b60006040518083038186803b158015610bf557600080fd5b505afa158015610c09573d6000803e3d6000fd5b505050506040513d6000823e3d601f19601f82011682018060405250810190610c329190612b20565b905082600081518110610c4857610c476128d9565b5b602002602001015173ffffffffffffffffffffffffffffffffffffffff1663095ea7b3600560009054906101000a900473ffffffffffffffffffffffffffffffffffffffff16886040518363ffffffff1660e01b8152600401610cac9291906126de565b602060405180830381600087803b158015610cc657600080fd5b505af1158015610cda573d6000803e3d6000fd5b505050506040513d601f19601f82011682018060405250810190610cfe919061271c565b5082600181518110610d1357610d126128d9565b5b602002602001015173ffffffffffffffffffffffffffffffffffffffff1663095ea7b3600560009054906101000a900473ffffffffffffffffffffffffffffffffffffffff16876040518363ffffffff1660e01b8152600401610d779291906126de565b602060405180830381600087803b158015610d9157600080fd5b505af1158015610da5573d6000803e3d6000fd5b505050506040513d601f19601f82011682018060405250810190610dc9919061271c565b5081600081518110610dde57610ddd6128d9565b5b602002602001015173ffffffffffffffffffffffffffffffffffffffff1663095ea7b3600660009054906101000a900473ffffffffffffffffffffffffffffffffffffffff1683600181518110610e3857610e376128d9565b5b60200260200101516040518363ffffffff1660e01b8152600401610e5d9291906126de565b602060405180830381600087803b158015610e7757600080fd5b505af1158015610e8b573d6000803e3d6000fd5b505050506040513d601f19601f82011682018060405250810190610eaf919061271c565b5081600181518110610ec457610ec36128d9565b5b602002602001015173ffffffffffffffffffffffffffffffffffffffff1663095ea7b3600660009054906101000a900473ffffffffffffffffffffffffffffffffffffffff16886040518363ffffffff1660e01b8152600401610f289291906126de565b602060405180830381600087803b158015610f4257600080fd5b505af1158015610f56573d6000803e3d6000fd5b505050506040513d601f19601f82011682018060405250810190610f7a919061271c565b50600560009054906101000a900473ffffffffffffffffffffffffffffffffffffffff1673ffffffffffffffffffffffffffffffffffffffff166338ed173987878630620186a042610fcc9190612b98565b6040518663ffffffff1660e01b8152600401610fec959493929190612bee565b600060405180830381600087803b15801561100657600080fd5b505af115801561101a573d6000803e3d6000fd5b505050506040513d6000823e3d601f19601f820116820180604052508101906110439190612b20565b50600660009054906101000a900473ffffffffffffffffffffffffffffffffffffffff1673ffffffffffffffffffffffffffffffffffffffff166338ed173982600181518110611096576110956128d9565b5b6020026020010151868530620186a0426110b09190612b98565b6040518663ffffffff1660e01b81526004016110d0959493929190612bee565b600060405180830381600087803b1580156110ea57600080fd5b505af11580156110fe573d6000803e3d6000fd5b505050506040513d6000823e3d601f19601f820116820180604052508101906111279190612b20565b508260008151811061113c5761113b6128d9565b5b602002602001015173ffffffffffffffffffffffffffffffffffffffff1663a9059cbb60008054906101000a900473ffffffffffffffffffffffffffffffffffffffff16600160009054906101000a900473ffffffffffffffffffffffffffffffffffffffff1673ffffffffffffffffffffffffffffffffffffffff166370a08231306040518263ffffffff1660e01b81526004016111db9190612535565b60206040518083038186803b1580156111f357600080fd5b505afa158015611207573d6000803e3d6000fd5b505050506040513d601f19601f8201168201806040525081019061122b919061275e565b6040518363ffffffff1660e01b81526004016112489291906126de565b602060405180830381600087803b15801561126257600080fd5b505af1158015611276573d6000803e3d6000fd5b505050506040513d601f19601f8201168201806040525081019061129a919061271c565b50505050505050565b600160009054906101000a900473ffffffffffffffffffffffffffffffffffffffff1681565b600360009054906101000a900473ffffffffffffffffffffffffffffffffffffffff1681565b600260009054906101000a900473ffffffffffffffffffffffffffffffffffffffff1681565b60008054906101000a900473ffffffffffffffffffffffffffffffffffffffff1681565b60008060009054906101000a900473ffffffffffffffffffffffffffffffffffffffff16905090565b6000600460009054906101000a900473ffffffffffffffffffffffffffffffffffffffff1673ffffffffffffffffffffffffffffffffffffffff1663dd62ed3e60008054906101000a900473ffffffffffffffffffffffffffffffffffffffff16306040518363ffffffff1660e01b81526004016113e192919061278b565b60206040518083038186803b1580156113f957600080fd5b505afa15801561140d573d6000803e3d6000fd5b505050506040513d601f19601f82011682018060405250810190611431919061275e565b1415611472576040517f08c379a000000000000000000000000000000000000000000000000000000000815260040161146990612853565b60405180910390fd5b600460009054906101000a900473ffffffffffffffffffffffffffffffffffffffff1673ffffffffffffffffffffffffffffffffffffffff166323b872dd60008054906101000a900473ffffffffffffffffffffffffffffffffffffffff1630866040518463ffffffff1660e01b81526004016114f193929190612873565b602060405180830381600087803b15801561150b57600080fd5b505af115801561151f573d6000803e3d6000fd5b505050506040513d601f19601f82011682018060405250810190611543919061271c565b506060600267ffffffffffffffff811115611561576115606128aa565b5b60405190808252806020026020018201604052801561158f5781602001602082028036833780820191505090505b509050600160009054906101000a900473ffffffffffffffffffffffffffffffffffffffff16816000815181106115c9576115c86128d9565b5b602002602001019073ffffffffffffffffffffffffffffffffffffffff16908173ffffffffffffffffffffffffffffffffffffffff1681525050600560009054906101000a900473ffffffffffffffffffffffffffffffffffffffff1673ffffffffffffffffffffffffffffffffffffffff1663ad5c46486040518163ffffffff1660e01b815260040160206040518083038186803b15801561166b57600080fd5b505afa15801561167f573d6000803e3d6000fd5b505050506040513d601f19601f820116820180604052508101906116a391906127c9565b816001815181106116b7576116b66128d9565b5b602002602001019073ffffffffffffffffffffffffffffffffffffffff16908173ffffffffffffffffffffffffffffffffffffffff16815250506060600267ffffffffffffffff81111561170e5761170d6128aa565b5b60405190808252806020026020018201604052801561173c5781602001602082028036833780820191505090505b509050600560009054906101000a900473ffffffffffffffffffffffffffffffffffffffff1673ffffffffffffffffffffffffffffffffffffffff1663ad5c46486040518163ffffffff1660e01b815260040160206040518083038186803b1580156117a757600080fd5b505afa1580156117bb573d6000803e3d6000fd5b505050506040513d601f19601f820116820180604052508101906117df91906127c9565b816000815181106117f3576117f26128d9565b5b602002602001019073ffffffffffffffffffffffffffffffffffffffff16908173ffffffffffffffffffffffffffffffffffffffff1681525050600160009054906101000a900473ffffffffffffffffffffffffffffffffffffffff1681600181518110611864576118636128d9565b5b602002602001019073ffffffffffffffffffffffffffffffffffffffff16908173ffffffffffffffffffffffffffffffffffffffff16815250506000600660009054906101000a900473ffffffffffffffffffffffffffffffffffffffff1673ffffffffffffffffffffffffffffffffffffffff1663d06ca61f87856040518363ffffffff1660e01b81526004016118fd9291906129c6565b60006040518083038186803b15801561191557600080fd5b505afa158015611929573d6000803e3d6000fd5b505050506040513d6000823e3d601f19601f820116820180604052508101906119529190612b20565b905082600081518110611968576119676128d9565b5b602002602001015173ffffffffffffffffffffffffffffffffffffffff1663095ea7b3600660009054906101000a900473ffffffffffffffffffffffffffffffffffffffff16886040518363ffffffff1660e01b81526004016119cc9291906126de565b602060405180830381600087803b1580156119e657600080fd5b505af11580156119fa573d6000803e3d6000fd5b505050506040513d601f19601f82011682018060405250810190611a1e919061271c565b5082600181518110611a3357611a326128d9565b5b602002602001015173ffffffffffffffffffffffffffffffffffffffff1663095ea7b3600660009054906101000a900473ffffffffffffffffffffffffffffffffffffffff16876040518363ffffffff1660e01b8152600401611a979291906126de565b602060405180830381600087803b158015611ab157600080fd5b505af1158015611ac5573d6000803e3d6000fd5b505050506040513d601f19601f82011682018060405250810190611ae9919061271c565b5081600081518110611afe57611afd6128d9565b5b602002602001015173ffffffffffffffffffffffffffffffffffffffff1663095ea7b3600560009054906101000a900473ffffffffffffffffffffffffffffffffffffffff1683600181518110611b5857611b576128d9565b5b60200260200101516040518363ffffffff1660e01b8152600401611b7d9291906126de565b602060405180830381600087803b158015611b9757600080fd5b505af1158015611bab573d6000803e3d6000fd5b505050506040513d601f19601f82011682018060405250810190611bcf919061271c565b5081600181518110611be457611be36128d9565b5b602002602001015173ffffffffffffffffffffffffffffffffffffffff1663095ea7b3600560009054906101000a900473ffffffffffffffffffffffffffffffffffffffff16886040518363ffffffff1660e01b8152600401611c489291906126de565b602060405180830381600087803b158015611c6257600080fd5b505af1158015611c76573d6000803e3d6000fd5b505050506040513d601f19601f82011682018060405250810190611c9a919061271c565b50600660009054906101000a900473ffffffffffffffffffffffffffffffffffffffff1673ffffffffffffffffffffffffffffffffffffffff166338ed173987878630620186a042611cec9190612b98565b6040518663ffffffff1660e01b8152600401611d0c959493929190612bee565b600060405180830381600087803b158015611d2657600080fd5b505af1158015611d3a573d6000803e3d6000fd5b505050506040513d6000823e3d601f19601f82011682018060405250810190611d639190612b20565b50600560009054906101000a900473ffffffffffffffffffffffffffffffffffffffff1673ffffffffffffffffffffffffffffffffffffffff166338ed173982600181518110611db657611db56128d9565b5b6020026020010151868530620186a042611dd09190612b98565b6040518663ffffffff1660e01b8152600401611df0959493929190612bee565b600060405180830381600087803b158015611e0a57600080fd5b505af1158015611e1e573d6000803e3d6000fd5b505050506040513d6000823e3d601f19601f82011682018060405250810190611e479190612b20565b5082600081518110611e5c57611e5b6128d9565b5b602002602001015173ffffffffffffffffffffffffffffffffffffffff1663a9059cbb60008054906101000a900473ffffffffffffffffffffffffffffffffffffffff16600160009054906101000a900473ffffffffffffffffffffffffffffffffffffffff1673ffffffffffffffffffffffffffffffffffffffff166370a08231306040518263ffffffff1660e01b8152600401611efb9190612535565b60206040518083038186803b158015611f1357600080fd5b505afa158015611f27573d6000803e3d6000fd5b505050506040513d601f19601f82011682018060405250810190611f4b919061275e565b6040518363ffffffff1660e01b8152600401611f689291906126de565b602060405180830381600087803b158015611f8257600080fd5b505af1158015611f96573d6000803e3d6000fd5b505050506040513d601f19601f82011682018060405250810190611fba919061271c565b50505050505050565b600460009054906101000a900473ffffffffffffffffffffffffffffffffffffffff1673ffffffffffffffffffffffffffffffffffffffff16638fcbaf0c33308989898989896040518963ffffffff1660e01b815260040161202c989796959493929190612c75565b600060405180830381600087803b15801561204657600080fd5b505af115801561205a573d6000803e3d6000fd5b50505050505050505050565b60008054906101000a900473ffffffffffffffffffffffffffffffffffffffff1673ffffffffffffffffffffffffffffffffffffffff163373ffffffffffffffffffffffffffffffffffffffff16146120f4576040517f08c379a00000000000000000000000000000000000000000000000000000000081526004016120eb90612d3f565b60405180910390fd5b806000806101000a81548173ffffffffffffffffffffffffffffffffffffffff021916908373ffffffffffffffffffffffffffffffffffffffff16021790555050565b60006060600267ffffffffffffffff811115612156576121556128aa565b5b6040519080825280602002602001820160405280156121845781602001602082028036833780820191505090505b509050600160009054906101000a900473ffffffffffffffffffffffffffffffffffffffff16816000815181106121be576121bd6128d9565b5b602002602001019073ffffffffffffffffffffffffffffffffffffffff16908173ffffffffffffffffffffffffffffffffffffffff1681525050600560009054906101000a900473ffffffffffffffffffffffffffffffffffffffff1673ffffffffffffffffffffffffffffffffffffffff1663ad5c46486040518163ffffffff1660e01b815260040160206040518083038186803b15801561226057600080fd5b505afa158015612274573d6000803e3d6000fd5b505050506040513d601f19601f8201168201806040525081019061229891906127c9565b816001815181106122ac576122ab6128d9565b5b602002602001019073ffffffffffffffffffffffffffffffffffffffff16908173ffffffffffffffffffffffffffffffffffffffff16815250506000600560009054906101000a900473ffffffffffffffffffffffffffffffffffffffff1673ffffffffffffffffffffffffffffffffffffffff1663d06ca61f85846040518363ffffffff1660e01b81526004016123459291906129c6565b60006040518083038186803b15801561235d57600080fd5b505afa158015612371573d6000803e3d6000fd5b505050506040513d6000823e3d601f19601f8201168201806040525081019061239a9190612b20565b9050806001815181106123b0576123af6128d9565b5b602002602001015192505050919050565b6000604051905090565b600080fd5b600080fd5b600073ffffffffffffffffffffffffffffffffffffffff82169050919050565b6000612400826123d5565b9050919050565b612410816123f5565b811461241b57600080fd5b50565b60008135905061242d81612407565b92915050565b6000819050919050565b61244681612433565b811461245157600080fd5b50565b6000813590506124638161243d565b92915050565b600080604083850312156124805761247f6123cb565b5b600061248e8582860161241e565b925050602061249f85828601612454565b9150509250929050565b6124b281612433565b82525050565b60006020820190506124cd60008301846124a9565b92915050565b6000806000606084860312156124ec576124eb6123cb565b5b60006124fa86828701612454565b935050602061250b86828701612454565b925050604061251c86828701612454565b9150509250925092565b61252f816123f5565b82525050565b600060208201905061254a6000830184612526565b92915050565b60008115159050919050565b61256581612550565b811461257057600080fd5b50565b6000813590506125828161255c565b92915050565b600060ff82169050919050565b61259e81612588565b81146125a957600080fd5b50565b6000813590506125bb81612595565b92915050565b6000819050919050565b6125d4816125c1565b81146125df57600080fd5b50565b6000813590506125f1816125cb565b92915050565b60008060008060008060c08789031215612614576126136123cb565b5b600061262289828a01612454565b965050602061263389828a01612454565b955050604061264489828a01612573565b945050606061265589828a016125ac565b935050608061266689828a016125e2565b92505060a061267789828a016125e2565b9150509295509295509295565b60006020828403121561269a576126996123cb565b5b60006126a88482850161241e565b91505092915050565b6000602082840312156126c7576126c66123cb565b5b60006126d584828501612454565b91505092915050565b60006040820190506126f36000830185612526565b61270060208301846124a9565b9392505050565b6000815190506127168161255c565b92915050565b600060208284031215612732576127316123cb565b5b600061274084828501612707565b91505092915050565b6000815190506127588161243d565b92915050565b600060208284031215612774576127736123cb565b5b600061278284828501612749565b91505092915050565b60006040820190506127a06000830185612526565b6127ad6020830184612526565b9392505050565b6000815190506127c381612407565b92915050565b6000602082840312156127df576127de6123cb565b5b60006127ed848285016127b4565b91505092915050565b600082825260208201905092915050565b7f416c6c6f77616e6365206973206e756c6c000000000000000000000000000000600082015250565b600061283d6011836127f6565b915061284882612807565b602082019050919050565b6000602082019050818103600083015261286c81612830565b9050919050565b60006060820190506128886000830186612526565b6128956020830185612526565b6128a260408301846124a9565b949350505050565b7f4e487b7100000000000000000000000000000000000000000000000000000000600052604160045260246000fd5b7f4e487b7100000000000000000000000000000000000000000000000000000000600052603260045260246000fd5b600081519050919050565b600082825260208201905092915050565b6000819050602082019050919050565b61293d816123f5565b82525050565b600061294f8383612934565b60208301905092915050565b6000602082019050919050565b600061297382612908565b61297d8185612913565b935061298883612924565b8060005b838110156129b95781516129a08882612943565b97506129ab8361295b565b92505060018101905061298c565b5085935050505092915050565b60006040820190506129db60008301856124a9565b81810360208301526129ed8184612968565b90509392505050565b600080fd5b6000601f19601f8301169050919050565b612a15826129fb565b810181811067ffffffffffffffff82111715612a3457612a336128aa565b5b80604052505050565b6000612a476123c1565b9050612a538282612a0c565b919050565b600067ffffffffffffffff821115612a7357612a726128aa565b5b602082029050602081019050919050565b600080fd5b6000612a9c612a9784612a58565b612a3d565b90508083825260208201905060208402830185811115612abf57612abe612a84565b5b835b81811015612ae85780612ad48882612749565b845260208401935050602081019050612ac1565b5050509392505050565b600082601f830112612b0757612b066129f6565b5b8151612b17848260208601612a89565b91505092915050565b600060208284031215612b3657612b356123cb565b5b600082015167ffffffffffffffff811115612b5457612b536123d0565b5b612b6084828501612af2565b91505092915050565b7f4e487b7100000000000000000000000000000000000000000000000000000000600052601160045260246000fd5b6000612ba382612433565b9150612bae83612433565b9250827fffffffffffffffffffffffffffffffffffffffffffffffffffffffffffffffff03821115612be357612be2612b69565b5b828201905092915050565b600060a082019050612c0360008301886124a9565b612c1060208301876124a9565b8181036040830152612c228186612968565b9050612c316060830185612526565b612c3e60808301846124a9565b9695505050505050565b612c5181612550565b82525050565b612c6081612588565b82525050565b612c6f816125c1565b82525050565b600061010082019050612c8b600083018b612526565b612c98602083018a612526565b612ca560408301896124a9565b612cb260608301886124a9565b612cbf6080830187612c48565b612ccc60a0830186612c57565b612cd960c0830185612c66565b612ce660e0830184612c66565b9998505050505050505050565b7f4e6f7420417574686f72697a6564210000000000000000000000000000000000600082015250565b6000612d29600f836127f6565b9150612d3482612cf3565b602082019050919050565b60006020820190508181036000830152612d5881612d1c565b905091905056fea2646970667358221220a77b5c99208214c5082fb494013116150cdd3299b9308c403539effb9679a28764736f6c63430008080033",
  "linkReferences": {},
  "deployedLinkReferences": {}
}